S021000050726F6A65746F20526F626F6C64696E686F2047617563686F2E7372656379
S11300000C9434000C9451000C9451000C94510045
S11300100C9451000C9451000C9451000C94510018
S11300200C9451000C9451000C9451000C94510008
S11300300C9451000C9451000C9451000C945100F8
S11300400C9451000C9451000C9451000C945100E8
S11300500C9451000C9451000C9451000C945100D8
S11300600C9451000C94510011241FBECFEFD8E022
S1130070DEBFCDBF11E0A0E0B1E0E4EEF0E002C0ED
S113008005900D92A030B107D9F721E0A0E0B1E0CE
S113009001C01D92A030B207E1F70E9453000C94F6
S11300A070000C9400006BB18AB170E026E030E07F
S11300B045E050E090E00E946E006BB18AB170E0C0
S11300C06894EE24E2F8F12C02E010E021E030E044
S11300D040E050E090E00E946F00FFCF0895089543
S10700E0F894FFCFBE
S9030000FC
