:100000000C9434000C9451000C9451000C94510049
:100010000C94B0010C9451000C9451000C945100BC
:100020000C9451000C9451000C9451000C9451000C
:100030000C9451000C9451000C9451000C945100FC
:100040000C94F6010C9451000C9451000C94510046
:100050000C9451000C94D3000C9451000C9451005A
:100060000C9451000C94510011241FBECFEFD8E026
:10007000DEBFCDBF11E0A0E0B1E0E6EAF6E002C0ED
:1000800005900D92A030B107D9F721E0A0E0B1E0D2
:1000900001C01D92AD35B207E1F70E9453000C94E8
:1000A00051030C9400000E943E014CE750E0EA012D
:1000B00088818F778883888180648883A7E5B1E011
:1000C0008C918C7F81608C93EAE7F0E08081846082
:1000D00080838081826080838081816080838C9135
:1000E0008C618C938081806280838C9180628C9300
:1000F0008BE790E0EC01288124602883288122602E
:10010000288328812E7F28838C918F7380688C931D
:10011000A8E5B1E08C9181608C93EA019881907F91
:1001200094609883837C80618C93808188608083D5
:10013000A9E5B1E08C9180628C9390819068908366
:1001400080618C933C983D9844984598E1E8F0E0B4
:1001500080818F7E8083808188608083A0E8B0E08A
:100160008C918D7F8C938C918E7F8C938081846019
:10017000808380818D7F808380818160808387E818
:1001800090E00E942401EFE6F0E080818D7F808383
:1001900078945B9A80E090E00E948E0180E090E08D
:1001A0000E949F01F7CF1F920F920FB60F9211245A
:1001B0008F939F93EF93FF938091000190910101A2
:1001C00001969093010180930001809102018111B9
:1001D00018C08091780090917900909301018093EC
:1001E0000001ECE7F0E08081807F85608083E8E5B6
:1001F000F1E08081837C8461808381E080930201CF
:100200001AC0809102018130B1F480917800909100
:1002100079009093010180930001ECE7F0E0808188
:10022000807F84608083E8E5F1E08081837C806169
:10023000808310920201FF91EF919F918F910F9017
:100240000FBE0F901F9018952FB7F89490938900C8
:10025000809388002FBF0895559A569A539A549ABE
:100260005D985E985B985C980895389839983A98AC
:100270003C98409841984298449808950E942C01D7
:100280000E94350185B5877F85BD84B5826084BDB8
:1002900084B5816084BD85B58B7F85BD85B5826061
:1002A00085BD85B5816085BD84B5806884BD84B514
:1002B0008F7B84BD84B5806284BD84B58F7E84BD10
:1002C00017BC18BCEEE6F0E08081826080838081FC
:1002D000846080838081816080831092030110920A
:1002E0000401109205011092060110920F01109264
:1002F0001001109211011092120110921B01109224
:100300001C0110921D0110921E0110920801109202
:10031000070110921401109213010895282F392F0C
:100320002F3F310509F010F45B9888BD21503F4FF5
:100330002F3F310518F45B9A815088BD0895282F0E
:10034000392F2F3F310509F010F45C9887BD2150FB
:100350003F4F2F3F310518F45C9A815087BD0895B7
:100360001F920F920FB60F9211248F939F9380913B
:100370000A0196B19170891731F08093090186B115
:10038000817080930A0180910C0196B196959170CD
:10039000981739F080930B0186B186958170809310
:1003A0000C018091160196B192FB992790F998174C
:1003B00041F08093150186B182FB882780F98093F4
:1003C00016018091180196B192959170981739F0A5
:1003D0008093170186B182958170809318019F9157
:1003E0008F910F900FBE0F901F9018951F920F9234
:1003F0000FB60F9211242F933F934F935F936F93F8
:100400007F938F939F93AF93BF93EF93FF936091ED
:1004100003017091040180910501909106010E94F1
:10042000C3022FE632E143E85FE30E9433020E94F9
:1004300097026093030170930401809305019093E8
:100440000601FF91EF91BF91AF919F918F917F91A5
:100450006F915F914F913F912F910F900FBE0F9031
:100460001F9018955058BB27AA270ED0E0C0D1D0B6
:1004700030F0D6D020F031F49F3F11F41EF4C6C006
:100480000EF4E095E7FBBCC0E92FE2D080F3BA1789
:10049000620773078407950718F071F49EF5FAC098
:1004A0000EF4E0950B2EBA2FA02D0B01B90190018F
:1004B0000C01CA01A0011124FF27591B99F0593FD3
:1004C00050F4503E68F11A16F040A22F232F342F1B
:1004D0004427585FF3CF469537952795A795F04069
:1004E0005395C9F77EF41F16BA0B620B730B840B7E
:1004F000BAF09150A1F0FF0FBB1F661F771F881F36
:10050000C2F70EC0BA0F621F731F841F48F487958D
:1005100077956795B795F7959E3F08F0B3CF93957C
:10052000880F08F09927EE0F97958795089598D032
:1005300088F09F5790F0B92F9927B751A0F0D1F0CC
:10054000660F771F881F991F1AF0BA95C9F712C056
:10055000B13081F09FD0B1E008959CC0672F782F13
:100560008827B85F39F0B93FCCF3869577956795C2
:10057000B395D9F73EF490958095709561957F4F2E
:100580008F4F9F4F0895E89409C097FB3EF49095D4
:100590008095709561957F4F8F4F9F4F9923A9F05C
:1005A000F92F96E9BB279395F695879577956795EB
:1005B000B795F111F8CFFAF4BB0F11F460FF1BC02F
:1005C0006F5F7F4F8F4F9F4F16C0882311F096E9C2
:1005D00011C0772321F09EE8872F762F05C0662370
:1005E00071F096E8862F70E060E02AF09A95660F29
:1005F000771F881FDAF7880F9695879597F90895E2
:1006000097F99F6780E870E060E008959FEF80ECC5
:10061000089500240A941616170618060906089568
:1006200000240A9412161306140605060895092ECE
:100630000394000C11F4882352F0BB0F40F4BF2B3D
:1006400011F460FF04C06F5F7F4F8F4F9F4F08957D
:1006500057FD9058440F551F59F05F3F71F0479573
:10066000880F97FB991F61F09F3F79F08795089558
:10067000121613061406551FF2CF4695F1DF08C077
:10068000161617061806991FF1CF86957105610594
:1006900008940895E894BB2766277727CB0197F93C
:0606A0000895F894FFCF5D
:00000001FF
