S021000050726F6A65746F20526F626F6C64696E686F2047617563686F2E7372656379
S11300000C9434000C9451000C9451000C94510045
S11300100C9451000C9451000C9451000C94510018
S11300200C9451000C9451000C9451000C94510008
S11300300C9451000C9451000C9491000C949B006E
S11300400C94A5000C9451000C9451000C94510094
S11300500C9451000C9451000C9451000C945100D8
S11300600C9451000C94510011241FBECFEFD8E022
S1130070DEBFCDBF11E0A0E0B1E0E6E6F1E002C0F2
S113008005900D92A030B107D9F721E0A0E0B1E0CE
S113009001C01D92A030B207E1F70E9453000C94F6
S11300A0B1000C9400006BB18AB126E045E00E94D7
S11300B0AF006BB18AB16894EE24E2F802E021E06B
S11300C040E00E94B00085B5877F85BD84B582601D
S11300D084BD84B5816084BD85B58B7F85BD85B5C0
S11300E0826085BD85B58E7F85BD84B5806884BDFD
S11300F084B58F7B84BD84B5806284BD84B58F7ED6
S113010084BD8FE787BD88BDEEE6F0E08081826024
S113011080838081846080838081816080837894FF
S1130120FFCF1F920F920FB60F9211240F900FBEA4
S11301300F901F9018951F920F920FB60F921124D3
S11301400F900FBE0F901F9018951F920F920FB62D
S11301500F9211240F900FBE0F901F9018950895C1
S10901600895F894FFCF9E
S9030000FC
