:100000000C9434000C9451000C9451000C94510049
:100010000C9451000C9451000C9451000C9451001C
:100020000C9451000C9451000C9451000C9451000C
:100030000C9451000C9451000C9451000C945100FC
:100040000C9451000C9451000C9451000C945100EC
:100050000C9451000C9449010C9451000C945100E3
:100060000C9451000C94510011241FBECFEFD8E026
:10007000DEBFCDBF11E0A0E0B1E0E6ECFBE002C0E6
:1000800005900D92AA33B107D9F721E0AAE3B1E0B8
:1000900001C01D92A338B207E1F70E9453000C94EF
:1000A000E1050C940000E1ECF0E080818860808341
:1000B000E3E7F1E080818064808380E091E09093C9
:1000C0008201809381019093800180937F019093BE
:1000D0007E0180937D0160E875E280E090E00E94FF
:1000E000B5010F2EF6E0EF2EF02D04E025E043E001
:1000F0006BE270E08AE290E00E9476026894EE245F
:10010000E2F802E021E040E068E270E087E290E09F
:100110000E94B90285B5877F85BD84B5826084BDA4
:1001200084B5816084BD85B58B7F85BD85B58260D2
:1001300085BD85B5816085BD84B5806884BD84B585
:100140008F7B84BD84B5806284BD84B58F7E84BD81
:1001500081E087BD88BDEEE6F0E08081826080832B
:100160008081846080838081816080834CE750E05F
:10017000EA0188818F778883888180648883A7E7F4
:10018000B1E08C918C7F81608C93EAE7F0E0808114
:1001900084608083808182608083808181608083AD
:1001A0008C918C618C938081806280838C91806241
:1001B0008C938BE790E0EC012881246028832881D0
:1001C0002260288328812E7F28838C918F738068FA
:1001D0008C93A8E7B1E08C9181608C93EA019881BF
:1001E000907F94609883837C80618C938081886009
:1001F0008083A9E7B1E08C9180628C9390819068B4
:10020000908380618C933C983D9844984598E1E8B0
:10021000F0E080818F7E8083808188608083A0E889
:10022000B0E08C918D7F8C938C918E7F8C938081AC
:100230008460808380818D7F8083808181608083E2
:1002400087E890E00E94AD01EFE6F0E080818D7FCD
:10025000808378945B9A1FE7CEE0D1E017BD18BD8C
:10026000F89420913A0130913B0180913C019091AA
:100270003D013F932F939F938F93DF93CF930E94E2
:100280001E0378940F900F900F900F900F900F9087
:10029000E5CF1F920F920FB60F9211248F939F9369
:1002A000EF93FF9380913C0190913D0101969093D3
:1002B0003D0180933C0180913E01811118C08091E5
:1002C00078009091790090933D0180933C01ECE798
:1002D000F0E08081807F85608083E8E7F1E08081C5
:1002E000837C8461808381E080933E011AC0809189
:1002F0003E018130B1F48091780090917900909323
:100300003D0180933C01ECE7F0E08081807F8460D8
:100310008083E8E7F1E08081837C806180831092B4
:100320003E01FF91EF919F918F910F900FBE0F9023
:100330001F901895E0ECF0E0908195FFFDCF809341
:10034000C60080E090E00895E0ECF0E08081882332
:10035000ECF78091C60090E008952FB7F894909341
:100360008900809388002FBF08959B01AC01E0ECC9
:10037000F0E08081837E8083E3E7F1E08081877E07
:100380008F7D8083837090E08230910509F44CC0AA
:100390008330910509F465C0019719F1E0ECF0E0B4
:1003A00080818D7F8083E2ECF0E080818E7F80838E
:1003B00080818F77808380818F7B808360E472E48B
:1003C0008FE090E00E94FC022150310920937501DA
:1003D000E6E7F1E0932F9F708081807F892B8083F7
:1003E0006EC0E0ECF0E0808182608083E2ECF0E0BF
:1003F00080818E7F808380818F77808380818F7BD7
:10040000808360E874E88EE190E00E94FC02215055
:10041000310920937501E6E7F1E0932F9F70808109
:10042000807F892B80834BC0E0ECF0E080818D7F62
:1004300080838091730182FF06C0E2ECF0E080814E
:100440008160808305C0E2ECF0E080818E7F808354
:10045000E2ECF0E080818F7780838081806480830C
:100460002EC0E0ECF0E080818D7F8083809173016D
:1004700082FF06C0E2ECF0E080818160808305C0ED
:10048000E2ECF0E080818E7F8083E2ECF0E080811E
:100490008068808380818064808360E072E18AE785
:1004A00090E00E94FC022150310920937501E6E79B
:1004B000F1E0932F9F708081807F892B80838091D2
:1004C0007601982F9F709093C5009091750190933D
:1004D000C40085FF0AC0E1ECF0E080818068808381
:1004E000E4E7F1E08081826080830895EF92FF92DB
:1004F0000F93FC01DB01508181E090E0BC0102C060
:10050000660F771F2A95E2F79B01352F322B308338
:100510003081BC0102C0660F771FEA94E2F77B01CD
:10052000362B30833081BC0102C0660F771F4A959D
:10053000E2F7AB01362B3083308102C0880F991F60
:100540000A95E2F7932F982B90839C91209529236D
:100550002C939C91E094E922EC929C914095492344
:100560004C939C91809589238C930F91FF90EF90F1
:100570000895EF920F931F93FC01DB01308181E01E
:1005800090E0BC0102C0660F771F4A95E2F7AB010D
:100590004095342330835081BC0102C0660F771F21
:1005A0002A95E2F79B012095322F35233083308145
:1005B000BC0102C0660F771F0A95E2F78B01009518
:1005C00030233083308102C0880F991FEA94E2F70C
:1005D0008095932F982390839C9149234C939C91D1
:1005E00029232C939C9109230C939C9189238C9310
:1005F0001F910F91EF900895A1E21A2EAA1BBB1B29
:10060000FD010DC0AA1FBB1FEE1FFF1FA217B307DE
:10061000E407F50720F0A21BB30BE40BF50B661FF4
:10062000771F881F991F1A9469F7609570958095B8
:1006300090959B01AC01BD01CF010895A0E0B0E011
:10064000E4E2F3E00C94BA05FE01359661917191F4
:10065000AF0180917F01909180010E943203E2E01E
:100660000C94D605ACE0B0E0E8E3F3E00C94AA0506
:100670007C016B018A01FC0117821682838181FF54
:10068000BDC1CE0101964C01F7019381F60193FDA6
:10069000859193FF81916F01882309F4ABC1853265
:1006A00039F493FD859193FF81916F01853229F48F
:1006B000B70190E00E941A05E7CF512C312C20E0C1
:1006C0002032A0F48B3269F030F4803259F083325A
:1006D00069F420612CC08D3239F0803339F4216007
:1006E00026C02260246023C0286021C027FD27C0C7
:1006F00030ED380F3A3078F426FF06C0FAE05F9EFE
:10070000300D1124532E13C08AE0389E300D112471
:10071000332E20620CC08E3221F426FD6BC1206482
:1007200006C08C3611F4206802C0883641F4F60108
:1007300093FD859193FF81916F018111C1CF982F16
:100740009F7D9554933028F40C5F1F4FFFE3F9838E
:100750000DC0833631F0833771F0833509F05BC00B
:1007600022C0F801808189830E5F1F4F4424439487
:10077000512C540115C03801F2E06F0E711CF801C4
:10078000A080B18026FF03C0652D70E002C06FEF2E
:100790007FEFC5012C870E940F052C0183012C855A
:1007A0002F77222E17C03801F2E06F0E711CF8016E
:1007B000A080B18026FF03C0652D70E002C06FEFFE
:1007C0007FEFC5012C870E9404052C012C85206831
:1007D000222E830123FC1BC0832D90E0481659066E
:1007E000B0F4B70180E290E00E941A053A94F4CF89
:1007F000F50127FC859127FE81915F01B70190E00B
:100800000E941A0531103A94F1E04F1A5108411430
:10081000510471F7E5C0843611F0893639F5F801D5
:1008200027FF07C060817181828193810C5F1F4F18
:1008300008C060817181882777FD8095982F0E5FB1
:100840001F4F2F76B22E97FF09C090958095709517
:1008500061957F4F8F4F9F4F2068B22E2AE030E086
:10086000A4010E944C05A82EA81844C0853729F47D
:100870002F7EB22E2AE030E025C0F22FF97FBF2E66
:100880008F36C1F018F4883579F0B4C0803719F08C
:10089000883721F0AFC02F2F2061B22EB4FE0DC0DB
:1008A0008B2D8460B82E09C024FF0AC09F2F96604C
:1008B000B92E06C028E030E005C020E130E002C0DB
:1008C00020E132E0F801B7FE07C0608171818281CA
:1008D00093810C5F1F4F06C06081718180E090E0C2
:1008E0000E5F1F4FA4010E944C05A82EA818FB2DD7
:1008F000FF77BF2EB6FE0BC02B2D2E7FA51450F414
:10090000B4FE0AC0B2FC08C02B2D2E7E05C07A2C86
:100910002B2D03C07A2C01C0752C24FF0DC0FE01C5
:10092000EA0DF11D8081803311F4297E09C022FF78
:1009300006C07394739404C0822F867809F0739470
:1009400023FD13C020FF06C05A2C731418F4530C57
:100950005718732C731468F4B70180E290E02C8769
:100960000E941A0573942C85F5CF731410F4371870
:1009700001C0312C24FF12C0B70180E390E02C8726
:100980000E941A052C8522FF17C021FF03C088E5AD
:1009900090E002C088E790E0B7010CC0822F867813
:1009A00059F021FD02C080E201C08BE227FD8DE2FB
:1009B000B70190E00E941A05A51438F4B70180E34E
:1009C00090E00E941A055A94F7CFAA94F401EA0D18
:1009D000F11D8081B70190E00E941A05A110F5CFAA
:1009E000332009F451CEB70180E290E00E941A054D
:1009F0003A94F6CFF7018681978102C08FEF9FEF7F
:100A00002C96E2E10C94C605FC0105906150704003
:100A10000110D8F7809590958E0F9F1F0895FC01C7
:100A20006150704001900110D8F7809590958E0F1D
:100A30009F1F08950F931F93CF93DF93182F092FB4
:100A4000EB018B8181FD03C08FEF9FEF20C082FF00
:100A500010C04E815F812C813D81421753077CF489
:100A6000E881F9819F012F5F3F4F398328831083ED
:100A700006C0E885F985812F0995892B29F72E81F4
:100A80003F812F5F3F4F3F832E83812F902FDF9138
:100A9000CF911F910F910895FA01AA27283051F1A3
:100AA000203181F1E8946F936E7F6E5F7F4F8F4F9F
:100AB0009F4FAF4FB1E03ED0B4E03CD0670F781FFE
:100AC000891F9A1FA11D680F791F8A1F911DA11DE3
:100AD0006A0F711D811D911DA11D20D009F468941C
:100AE0003F912AE0269F11243019305D3193DEF6C4
:100AF000CF010895462F4770405D4193B3E00FD07A
:100B0000C9F7F6CF462F4F70405D4A3318F0495D64
:100B100031FD4052419302D0A9F7EACFB4E0A69547
:100B20009795879577956795BA95C9F70097610569
:100B3000710508959B01AC010A2E069457954795BF
:100B400037952795BA95C9F7620F731F841F951FB4
:100B5000A01D08952F923F924F925F926F927F92C5
:100B60008F929F92AF92BF92CF92DF92EF92FF92BD
:100B70000F931F93CF93DF93CDB7DEB7CA1BDB0B69
:100B80000FB6F894DEBF0FBECDBF09942A8839880E
:100B900048885F846E847D848C849B84AA84B98415
:100BA000C884DF80EE80FD800C811B81AA81B98121
:100BB000CE0FD11D0FB6F894DEBF0FBECDBFED0135
:060BC0000895F894FFCF38
:100BC60000000003000000009A01A4010000566521
:100BD6006C6F63696461646558203D20256420203C
:100BE60020202D2020202056656C6F636964616487
:0A0BF6006559203D2025640D000024
:00000001FF
