:100000000C9434000C9451000C9451000C94510049
:100010000C94D8020C9451000C9451000C94510093
:100020000C9451000C9451000C9451000C9451000C
:100030000C9451000C9451000C9451000C945100FC
:100040000C943A030C9451000C9451000C94510000
:100050000C9451000C9413010C9451000C94510019
:100060000C9451000C94510011241FBECFEFD8E026
:10007000DEBFCDBF11E0A0E0B1E0E6E5F0E102C0F7
:1000800005900D92A831B107D9F721E0A8E1B1E0C0
:1000900001C01D92A038B207E1F70E9453000C94F2
:1000A00029080C940000E1ECF0E0808188608083F6
:1000B000E0E7F1E080818064808380E091E09093CC
:1000C0007F0180937E0190937D0180937C019093CA
:1000D0007B0180937A0160E875E280E090E00E9405
:1000E0005601E1E8F0E080818F7E80838081886026
:1000F0008083A0E8B0E08C918D7F8C938C918E7F73
:100100008C9380818460808380818D7F80838081D7
:10011000816080838CE790E00E9446018CE790E04C
:100120000E944E01EFE6F0E080818E7F8083808127
:100130008D7F808380818B7F80836CE770E0DB0123
:100140008C9180688C938C9180648C93C4E7D1E00F
:10015000888183608883EAE7F0E08081846080831F
:1001600080818260808380818160808388818C61CE
:1001700088838081806280838881806288838BE726
:1001800090E0DC012C9124602C932C912D7F2C93FA
:100190002C9121602C9388818F7380648883C5E7BC
:1001A000D1E0888181608883DB019C91907F95609C
:1001B0009C93837C382F346138838081886080836E
:1001C00086E791E0DC012C9120622C93DB014C91BD
:1001D00040624C93326038833081306830832061D4
:1001E000FC01208378940E943602CEE0D1E0FFEF3C
:1001F00021EE84E0F15020408040E1F700C0000093
:100200008EE190E00E947E02809118019091190188
:100210009F938F93DF93CF930E9466050F900F906B
:100220000F900F90E4CF1F920F920FB60F921124F0
:100230008F939F93EF93FF93809178009091790033
:100240009093190180931801B29AEAE7F0E0808157
:1002500080618083FF91EF919F918F910F900FBEEE
:100260000F901F901895E0ECF0E0908195FFFDCF86
:100270008093C60080E090E00895E0ECF0E080819B
:100280008823ECF78091C60090E008952FB7F8948A
:1002900090938900809388002FBF08952FB7F8941A
:1002A00090938B0080938A002FBF08959B01AC012F
:1002B000E0ECF0E08081837E8083E0E7F1E0808104
:1002C000877E8F7D8083837090E08230910509F472
:1002D0004CC08330910509F465C0019719F1E0EC39
:1002E000F0E080818D7F8083E2ECF0E080818E7F82
:1002F000808380818F77808380818F7B808360E49F
:1003000072E48FE090E00E941E0521503109209395
:100310007201E3E7F1E0932F9F708081807F892B4A
:1003200080836EC0E0ECF0E0808182608083E2EC4C
:10033000F0E080818E7F808380818F7780838081D1
:100340008F7B808360E874E88EE190E00E941E0558
:100350002150310920937201E3E7F1E0932F9F7060
:100360008081807F892B80834BC0E0ECF0E080812E
:100370008D7F80838091700182FF06C0E2ECF0E007
:1003800080818160808305C0E2ECF0E080818E7F17
:100390008083E2ECF0E080818F77808380818064CD
:1003A00080832EC0E0ECF0E080818D7F808380919F
:1003B000700182FF06C0E2ECF0E080818160808302
:1003C00005C0E2ECF0E080818E7F8083E2ECF0E01B
:1003D00080818068808380818064808360E072E1B6
:1003E0008AE790E00E941E05215031092093720196
:1003F000E3E7F1E0932F9F708081807F892B8083DA
:1004000080917301982F9F709093C5009091720115
:100410009093C40085FF0AC0E1ECF0E08081806821
:100420008083E1E7F1E08081826080830895559ABE
:10043000569A539A549A5D985E985B985C98089582
:10044000389839983A983C984098419842984498FE
:10045000E8E6F0E0808182608083ECE6F0E0808175
:100460008160808380818260808308950E9417026A
:100470000E94200285B5877F85BD84B5826084BDDA
:1004800084B5816084BD85B58B7F85BD85B582606F
:1004900085BD85B5816085BD84B5806884BD84B522
:1004A0008F7B84BD84B5806284BD84B58F7E84BD1E
:1004B00017BC18BCEEE6F0E080818D7F80838081E0
:1004C0008B7F808380818160808310922B011092CA
:1004D0002C0110922D0110922E01109238011092D1
:1004E000390110923A0110923B01109223011092AF
:1004F00022011092300110922F010895282F392FD8
:100500002F3F310509F010F45B9888BD21503F4F13
:100510002F3F310518F45B9A815088BD0895609192
:100520002B0170912C0180912D0190912E010E9440
:100530002D0420E030E044EB53E40E94BB049B0117
:10054000AC0160E070E68AE697E40E9499030E949D
:10055000010470932A01609329018FB7F8948FBF2B
:1005600010922B0110922C0110922D0110922E014D
:100570000895CF93DF93C8E3D1E0288139814A8180
:100580005B81A8E6B1E00E9440059B01AC0160E6FA
:100590007AEE80E090E00E941E05309337012093B0
:1005A0003601188219821A821B82DF91CF91089539
:1005B0001F920F920FB60F9211242F933F934F93D8
:1005C0005F936F937F938F939F93AF93BF93EF93BB
:1005D000FF938091250196B19170891741F0809326
:1005E000240186B18170809325010E948F02809141
:1005F000270196B196959170981749F0809326013E
:1006000086B186958170809327010E948F02809128
:10061000320196B192FB992790F9981751F0809387
:10062000310186B182FB882780F9809332010E94D4
:10063000B9028091340196B192959170981749F062
:100640008093330186B182958170809334010E943A
:10065000B902FF91EF91BF91AF919F918F917F91DF
:100660006F915F914F913F912F910F900FBE0F901F
:100670001F9018951F920F920FB60F9211242F936F
:100680003F934F935F936F937F938F939F93AF931A
:10069000BF93EF93FF9320911A0130911B0140917A
:1006A0001C0150911D0160911E0170911F018091EC
:1006B000200190912101A1E00E944B0520931A0195
:1006C00030931B0140931C0150931D0160931E0148
:1006D00070931F018093200190932101EBE2F1E0E0
:1006E00080819181A281B3810196A11DB11D80837A
:1006F0009183A283B383E8E3F1E080819181A281B9
:10070000B3810196A11DB11D80839183A283B38320
:10071000FF91EF91BF91AF919F918F917F916F91D9
:100720005F914F913F912F910F900FBE0F901F90AF
:1007300018950CD0E6C0DED040F0D5D030F021F4D2
:100740005F3F19F0C7C0511110C1CAC0EBD098F378
:100750009923C9F35523B1F3951B550BBB27AA2742
:1007600062177307840738F09F5F5F4F220F331FB4
:10077000441FAA1FA9F333D00E2E3AF0E0E830D080
:1007800091505040E695001CCAF729D0FE2F27D083
:10079000660F771F881FBB1F261737074807AB0751
:1007A000B0E809F0BB0B802DBF01FF2793585F4FC6
:1007B0002AF09E3F510568F08DC0D7C05F3FECF333
:1007C000983EDCF3869577956795B795F7959F5F8B
:1007D000C9F7880F911D9695879597F90895E1E0DF
:1007E000660F771F881FBB1F621773078407BA073E
:1007F00020F0621B730B840BBA0BEE1F88F7E09599
:10080000089598D088F09F5790F0B92F9927B75145
:10081000A0F0D1F0660F771F881F991F1AF0BA95C4
:10082000C9F712C0B13081F09FD0B1E008959CC0EB
:10083000672F782F8827B85F39F0B93FCCF38695BA
:1008400077956795B395D9F73EF490958095709517
:1008500061957F4F8F4F9F4F0895E89409C097FB94
:100860003EF490958095709561957F4F8F4F9F4F87
:100870009923A9F0F92F96E9BB279395F6958795CB
:1008800077956795B795F111F8CFFAF4BB0F11F48E
:1008900060FF1BC06F5F7F4F8F4F9F4F16C0882335
:1008A00011F096E911C0772321F09EE8872F762F6B
:1008B00005C0662371F096E8862F70E060E02AF0AC
:1008C0009A95660F771F881FDAF7880F9695879598
:1008D00097F9089597F99F6780E870E060E00895C0
:1008E0009FEF80EC089500240A9416161706180648
:1008F0000906089500240A94121613061406050624
:100900000895092E0394000C11F4882352F0BB0FB4
:1009100040F4BF2B11F460FF04C06F5F7F4F8F4F17
:100920009F4F089557FD9058440F551F59F05F3F52
:1009300071F04795880F97FB991F61F09F3F79F001
:1009400087950895121613061406551FF2CF469583
:10095000F1DF08C0161617061806991FF1CF869505
:100960007105610508940895E894BB2766277727E9
:10097000CB0197F908950BD0C4CFB5DF28F0BADFCB
:1009800018F0952309F0A6CFABCF1124EECFCADF24
:10099000A0F3959FD1F3950F50E0551F629FF00192
:1009A000729FBB27F00DB11D639FAA27F00DB11DEB
:1009B000AA1F649F6627B00DA11D661F829F222774
:1009C000B00DA11D621F739FB00DA11D621F839FFB
:1009D000A00D611D221F749F3327A00D611D231FD1
:1009E000849F600D211D822F762F6A2F11249F571F
:1009F00050408AF0E1F088234AF0EE0FFF1FBB1F42
:100A0000661F771F881F91505040A9F79E3F5105E0
:100A100070F060CFAACF5F3FECF3983EDCF3869591
:100A200077956795B795F795E7959F5FC1F7FE2B8B
:100A3000880F911D9695879597F90895A1E21A2E32
:100A4000AA1BBB1BFD010DC0AA1FBB1FEE1FFF1F72
:100A5000A217B307E407F50720F0A21BB30BE40BC2
:100A6000F50B661F771F881F991F1A9469F7609509
:100A70007095809590959B01AC01BD01CF010895C3
:100A80000E945705A59F900DB49F900DA49F800DC7
:100A9000911D112408950024A7FD00942A0F301DF4
:100AA000401D501D601D701D801D901D0895A29F4A
:100AB000B001B39FC001A39F700D811D1124911D32
:100AC000B29F700D811D1124911D0895A0E0B0E02A
:100AD000ECE6F5E00C940208FE0135966191719107
:100AE000AF0180917C0190917D010E947A05E2E046
:100AF0000C941E08ACE0B0E0E0E8F5E00C94F207DE
:100B00007C016B018A01FC0117821682838181FFBF
:100B1000BDC1CE0101964C01F7019381F60193FD11
:100B2000859193FF81916F01882309F4ABC18532D0
:100B300039F493FD859193FF81916F01853229F4FA
:100B4000B70190E00E946207E7CF512C312C20E0E2
:100B50002032A0F48B3269F030F4803259F08332C5
:100B600069F420612CC08D3239F0803339F4216072
:100B700026C02260246023C0286021C027FD27C032
:100B800030ED380F3A3078F426FF06C0FAE05F9E69
:100B9000300D1124532E13C08AE0389E300D1124DD
:100BA000332E20620CC08E3221F426FD6BC12064EE
:100BB00006C08C3611F4206802C0883641F4F60174
:100BC00093FD859193FF81916F018111C1CF982F82
:100BD0009F7D9554933028F40C5F1F4FFFE3F983FA
:100BE0000DC0833631F0833771F0833509F05BC077
:100BF00022C0F801808189830E5F1F4F44244394F3
:100C0000512C540115C03801F2E06F0E711CF8012F
:100C1000A080B18026FF03C0652D70E002C06FEF99
:100C20007FEFC5012C870E9457072C0183012C857B
:100C30002F77222E17C03801F2E06F0E711CF801D9
:100C4000A080B18026FF03C0652D70E002C06FEF69
:100C50007FEFC5012C870E944C072C012C85206852
:100C6000222E830123FC1BC0832D90E048165906D9
:100C7000B0F4B70180E290E00E9462073A94F4CFAA
:100C8000F50127FC859127FE81915F01B70190E076
:100C90000E94620731103A94F1E04F1A5108411452
:100CA000510471F7E5C0843611F0893639F5F80141
:100CB00027FF07C060817181828193810C5F1F4F84
:100CC00008C060817181882777FD8095982F0E5F1D
:100CD0001F4F2F76B22E97FF09C090958095709583
:100CE00061957F4F8F4F9F4F2068B22E2AE030E0F2
:100CF000A4010E949407A82EA81844C0853729F49F
:100D00002F7EB22E2AE030E025C0F22FF97FBF2ED1
:100D10008F36C1F018F4883579F0B4C0803719F0F7
:100D2000883721F0AFC02F2F2061B22EB4FE0DC046
:100D30008B2D8460B82E09C024FF0AC09F2F9660B7
:100D4000B92E06C028E030E005C020E130E002C046
:100D500020E132E0F801B7FE07C060817181828135
:100D600093810C5F1F4F06C06081718180E090E02D
:100D70000E5F1F4FA4010E949407A82EA818FB2DF8
:100D8000FF77BF2EB6FE0BC02B2D2E7FA51450F47F
:100D9000B4FE0AC0B2FC08C02B2D2E7E05C07A2CF2
:100DA0002B2D03C07A2C01C0752C24FF0DC0FE0131
:100DB000EA0DF11D8081803311F4297E09C022FFE4
:100DC00006C07394739404C0822F867809F07394DC
:100DD00023FD13C020FF06C05A2C731418F4530CC3
:100DE0005718732C731468F4B70180E290E02C87D5
:100DF0000E94620773942C85F5CF731410F4371892
:100E000001C0312C24FF12C0B70180E390E02C8791
:100E10000E9462072C8522FF17C021FF03C088E5CE
:100E200090E002C088E790E0B7010CC0822F86787E
:100E300059F021FD02C080E201C08BE227FD8DE266
:100E4000B70190E00E946207A51438F4B70180E36F
:100E500090E00E9462075A94F7CFAA94F401EA0D39
:100E6000F11D8081B70190E00E946207A110F5CFCB
:100E7000332009F451CEB70180E290E00E9462076E
:100E80003A94F6CFF7018681978102C08FEF9FEFEA
:100E90002C96E2E10C940E08FC0105906150704024
:100EA0000110D8F7809590958E0F9F1F0895FC0133
:100EB0006150704001900110D8F7809590958E0F89
:100EC0009F1F08950F931F93CF93DF93182F092F20
:100ED000EB018B8181FD03C08FEF9FEF20C082FF6C
:100EE00010C04E815F812C813D81421753077CF4F5
:100EF000E881F9819F012F5F3F4F39832883108359
:100F000006C0E885F985812F0995892B29F72E815F
:100F10003F812F5F3F4F3F832E83812F902FDF91A3
:100F2000CF911F910F910895FA01AA27283051F10E
:100F3000203181F1E8946F936E7F6E5F7F4F8F4F0A
:100F40009F4FAF4FB1E03ED0B4E03CD0670F781F69
:100F5000891F9A1FA11D680F791F8A1F911DA11D4E
:100F60006A0F711D811D911DA11D20D009F4689487
:100F70003F912AE0269F11243019305D3193DEF62F
:100F8000CF010895462F4770405D4193B3E00FD0E5
:100F9000C9F7F6CF462F4F70405D4A3318F0495DD0
:100FA00031FD4052419302D0A9F7EACFB4E0A695B3
:100FB0009795879577956795BA95C9F700976105D5
:100FC000710508959B01AC010A2E0694579547952B
:100FD00037952795BA95C9F7620F731F841F951F20
:100FE000A01D08952F923F924F925F926F927F9231
:100FF0008F929F92AF92BF92CF92DF92EF92FF9229
:101000000F931F93CF93DF93CDB7DEB7CA1BDB0BD4
:101010000FB6F894DEBF0FBECDBF09942A88398879
:1010200048885F846E847D848C849B84AA84B98480
:10103000C884DF80EE80FD800C811B81AA81B9818C
:10104000CE0FD11D0FB6F894DEBF0FBECDBFED01A0
:061050000895F894FFCFA3
:10105600000000030000000033013D010000436F63
:0810660072203D2025640A0000
:00000001FF
