S021000050726F6A65746F20526F626F6C64696E686F2047617563686F2E7372656379
S11300000C9434000C9451000C9451000C94510045
S11300100C94B6020C9451000C9451000C945100B1
S11300200C9451000C9451000C9451000C94510008
S11300300C9451000C9451000C9451000C945100F8
S11300400C94FC020C9451000C9451000C9451003B
S11300500C9451000C9400010C9451000C94510028
S11300600C9451000C94510011241FBECFEFD8E022
S1130070DEBFCDBF11E0A0E0B1E0E4EFFBE002C0E1
S113008005900D92A232B107D9F721E0A2E2B1E0C6
S113009001C01D92A338B207E1F70E9453000C94EB
S11300A0F8050C940000E1ECF0E080818860808326
S11300B0E3E7F1E080818064808380E091E09093C5
S11300C08201809381019093800180937F019093BA
S11300D07E0180937D0160E875E280E090E00E94FB
S11300E08A010E945D024CE750E0EA0188818F7723
S11300F08883888180648883A7E7B1E08C918C7FB2
S113010081608C93EAE7F0E0808184608083808161
S1130110826080838081816080838C918C618C93E8
S11301208081806280838C9180628C938BE790E0E5
S1130130EC01288124602883288122602883288177
S11301402E7F28838C918F7380688C9388E791E04D
S1130150EC01288121602883EA013881307F3460F2
S11301603883237C2061EC0128838081886080832C
S1130170C9E7D1E088818062888390819068908308
S11301808061888390819F7D90839C919F7D9C93C7
S11301909081977F90838F7D888390819F779083D0
S11301A08F7E8883E1E8F0E080818F7E8083808188
S11301B088608083A0E8B0E08C918D7F8C938C91D3
S11301C08E7F8C9380818460808380818D7F808307
S11301D080818160808387E890E00E948201EFE65D
S11301E0F0E080818D7F8083808181608083808145
S11301F08E7F808378948EE190E00E94A502FBCFED
S11302001F920F920FB60F9211242F933F934F9387
S11302105F936F937F938F939F93AF93BF93EF936A
S1130220FF938091220190912301019690932301E1
S11302308093220180912401811118C0809178005B
S1130240909179009093230180932201ECE7F0E0F0
S11302508081807F85608083E8E7F1E08081837C12
S11302608461808381E0809324011AC080912401F9
S11302708130B1F4809178009091790090932301BA
S113028080932201ECE7F0E08081807F84608083AA
S1130290E8E7F1E08081837C80618083109224010F
S11302A08EE091E09F938F930E943503B09AEAE722
S11302B0F0E08081806180830F900F90FF91EF9137
S11302C0BF91AF919F918F917F916F915F914F916A
S11302D03F912F910F900FBE0F901F901895E0EC57
S11302E0F0E0908195FFFDCF8093C60080E090E020
S11302F00895E0ECF0E080818823ECF78091C6005B
S113030090E008952FB7F894909389008093880023
S11303102FBF08959B01AC01E0ECF0E08081837E67
S11303208083E3E7F1E08081877E8F7D8083837023
S113033090E08230910509F44CC08330910509F4B2
S113034065C0019719F1E0ECF0E080818D7F808336
S1130350E2ECF0E080818E7F808380818F778083E0
S113036080818F7B808360E472E48FE090E00E9460
S113037013032150310920937501E6E7F1E0932F2F
S11303809F708081807F892B80836EC0E0ECF0E0D9
S1130390808182608083E2ECF0E080818E7F8083C4
S11303A080818F77808380818F7B808360E874E88D
S11303B08EE190E00E9413032150310920937501CE
S11303C0E6E7F1E0932F9F708081807F892B808303
S11303D04BC0E0ECF0E080818D7F808380917301DD
S11303E082FF06C0E2ECF0E080818160808305C07A
S11303F0E2ECF0E080818E7F8083E2ECF0E08081AB
S11304008F7780838081806480832EC0E0ECF0E06D
S113041080818D7F80838091730182FF06C0E2EC2E
S1130420F0E080818160808305C0E2ECF0E08081AF
S11304308E7F8083E2ECF0E080818068808380811D
S11304408064808360E072E18AE790E00E94130395
S11304502150310920937501E6E7F1E0932F9F7055
S11304608081807F892B808380917601982F9F7073
S11304709093C500909175019093C40085FF0AC0C4
S1130480E1ECF0E0808180688083E4E7F1E0808142
S1130490826080830895559A569A539A549A5D9827
S11304A05E985B985C980895389839983A983C9887
S11304B0409841984298449808950E944B020E94A3
S11304C0540285B5877F85BD84B5826084BD84B5BB
S11304D0816084BD85B58B7F85BD85B5826085BD12
S11304E085B5816085BD84B5806884BD84B58F7B06
S11304F084BD84B5806284BD84B58F7E84BD17BC01
S113050018BCEEE6F0E080818D7F808380818B7F54
S1130510808380818160808310922F01109230014A
S1130520109231011092320110923B0110923C0161
S113053010923D0110923E01109228011092270161
S113054010923401109233010895282F392F2F3F30
S1130550310509F010F45B9888BD21503F4F2F3FBF
S1130560310518F45B9A815088BD08951F920F924B
S11305700FB60F9211248F939F9380912A0196B105
S11305809170891731F08093290186B1817080932D
S11305902A0180912C0196B196959170981739F0A3
S11305A080932B0186B18695817080932C01809174
S11305B0360196B192FB992790F9981741F08093F0
S11305C0350186B182FB882780F9809336018091BA
S11305D0380196B192959170981739F0809337014C
S11305E086B182958170809338019F918F910F908D
S11305F00FBE0F901F9018951F920F920FB60F9277
S113060011248F939F938091250190912601019647
S113061090932601809325019F918F910F900FBE97
S11306200F901F901895A1E21A2EAA1BBB1BFD0167
S11306300DC0AA1FBB1FEE1FFF1FA217B307E407BD
S1130640F50720F0A21BB30BE40BF50B661F771F15
S1130650881F991F1A9469F76095709580959095F5
S11306609B01AC01BD01CF010895A0E0B0E0EBE334
S1130670F3E00C94D105FE01359661917191AF01BF
S113068080917F01909180010E944903E2E00C94E3
S1130690ED05ACE0B0E0EFE4F3E00C94C1057C01BF
S11306A06B018A01FC0117821682838181FFBDC11F
S11306B0CE0101964C01F7019381F60193FD8591DA
S11306C093FF81916F01882309F4ABC1853239F41A
S11306D093FD859193FF81916F01853229F4B701D0
S11306E090E00E943105E7CF512C312C20E02032DC
S11306F0A0F48B3269F030F4803259F0833269F41B
S113070020612CC08D3239F0803339F4216026C049
S11307102260246023C0286021C027FD27C030ED5B
S1130720380F3A3078F426FF06C0FAE05F9E300DA9
S11307301124532E13C08AE0389E300D1124332E19
S113074020620CC08E3221F426FD6BC1206406C0E9
S11307508C3611F4206802C0883641F4F60193FD0A
S1130760859193FF81916F018111C1CF982F9F7D56
S11307709554933028F40C5F1F4FFFE3F9830DC0A9
S1130780833631F0833771F0833509F05BC022C0C2
S1130790F801808189830E5F1F4F44244394512CB8
S11307A0540115C03801F2E06F0E711CF801A080ED
S11307B0B18026FF03C0652D70E002C06FEF7FEFAC
S11307C0C5012C870E9426052C0183012C852F77D7
S11307D0222E17C03801F2E06F0E711CF801A080C0
S11307E0B18026FF03C0652D70E002C06FEF7FEF7C
S11307F0C5012C870E941B052C012C852068222E04
S1130800830123FC1BC0832D90E048165906B0F4E5
S1130810B70180E290E00E9431053A94F4CFF501EB
S113082027FC859127FE81915F01B70190E00E942A
S1130830310531103A94F1E04F1A51084114510432
S113084071F7E5C0843611F0893639F5F80127FFD0
S113085007C060817181828193810C5F1F4F08C042
S113086060817181882777FD8095982F0E5F1F4FD7
S11308702F76B22E97FF09C090958095709561955B
S11308807F4F8F4F9F4F2068B22E2AE030E0A401A3
S11308900E946305A82EA81844C0853729F42F7E2A
S11308A0B22E2AE030E025C0F22FF97FBF2E8F361A
S11308B0C1F018F4883579F0B4C0803719F088375E
S11308C021F0AFC02F2F2061B22EB4FE0DC08B2DAE
S11308D08460B82E09C024FF0AC09F2F9660B92EE9
S11308E006C028E030E005C020E130E002C020E18D
S11308F032E0F801B7FE07C0608171818281938183
S11309000C5F1F4F06C06081718180E090E00E5F34
S11309101F4FA4010E946305A82EA818FB2DFF7782
S1130920BF2EB6FE0BC02B2D2E7FA51450F4B4FEA3
S11309300AC0B2FC08C02B2D2E7E05C07A2C2B2DAC
S113094003C07A2C01C0752C24FF0DC0FE01EA0DF2
S1130950F11D8081803311F4297E09C022FF06C075
S11309607394739404C0822F867809F0739423FDE2
S113097013C020FF06C05A2C731418F4530C5718D4
S1130980732C731468F4B70180E290E02C870E9402
S1130990310573942C85F5CF731410F4371801C006
S11309A0312C24FF12C0B70180E390E02C870E9411
S11309B031052C8522FF17C021FF03C088E590E094
S11309C002C088E790E0B7010CC0822F867859F006
S11309D021FD02C080E201C08BE227FD8DE2B70158
S11309E090E00E943105A51438F4B70180E390E04B
S11309F00E9431055A94F7CFAA94F401EA0DF11D2F
S1130A008081B70190E00E943105A110F5CF332019
S1130A1009F451CEB70180E290E00E9431053A9486
S1130A20F6CFF7018681978102C08FEF9FEF2C9656
S1130A30E2E10C94DD05FC01059061507040011069
S1130A40D8F7809590958E0F9F1F0895FC016150F3
S1130A50704001900110D8F7809590958E0F9F1FDC
S1130A6008950F931F93CF93DF93182F092FEB0152
S1130A708B8181FD03C08FEF9FEF20C082FF10C0E8
S1130A804E815F812C813D81421753077CF4E881BC
S1130A90F9819F012F5F3F4F39832883108306C05C
S1130AA0E885F985812F0995892B29F72E813F81C6
S1130AB02F5F3F4F3F832E83812F902FDF91CF9164
S1130AC01F910F910895FA01AA27283051F120317E
S1130AD081F1E8946F936E7F6E5F7F4F8F4F9F4FCE
S1130AE0AF4FB1E03ED0B4E03CD0670F781F891F10
S1130AF09A1FA11D680F791F8A1F911DA11D6A0FDE
S1130B00711D811D911DA11D20D009F468943F9190
S1130B102AE0269F11243019305D3193DEF6CF018F
S1130B200895462F4770405D4193B3E00FD0C9F755
S1130B30F6CF462F4F70405D4A3318F0495D31FDC2
S1130B404052419302D0A9F7EACFB4E0A695979515
S1130B50879577956795BA95C9F7009761057105EB
S1130B6008959B01AC010A2E069457954795379535
S1130B702795BA95C9F7620F731F841F951FA01D8F
S1130B8008952F923F924F925F926F927F928F922D
S1130B909F92AF92BF92CF92DF92EF92FF920F9308
S1130BA01F93CF93DF93CDB7DEB7CA1BDB0B0FB612
S1130BB0F894DEBF0FBECDBF09942A8839884888CF
S1130BC05F846E847D848C849B84AA84B984C88465
S1130BD0DF80EE80FD800C811B81AA81B981CE0F5C
S1130BE0D11D0FB6F894DEBF0FBECDBFED01089541
S1070BF0F894FFCFA3
S1130BF400000003000000006F0179010000465565
S1130C0444455520465544455520465544455520AC
S1050C140D00CD
S9030000FC
